:030000000208C62D
:0C08C600787FE4F6D8FD75815E02090D14
:100CAA0054494D453A00444154453A202000504D9C
:070CBA0000414D0020200065
:090CE6000151000150000152000F
:050CF000D2AFD2AC22DE
:0F0CC100758920758DFD758BFF759850D28E2229
:03002300020C5A72
:100C5A00C0E0C0D075D000C00030980B7418255180
:0E0C6A00F8A699C2980551D000D0D0D0E03243
:050CF500D2B6C2B622D8
:0A0CDC00EF4E6003D2B422C2B4222E
:100B0A00AD07AC06E4F553F5547E007401A8540809
:100B1A008005C333CE33CED8F9FFEE5CF557EF5DCF
:100B2A00F558FFAE57120CDC120CF50554E554705B
:0D0B3A00020553C39408E553940040CD22FA
:1009C800D2B57FBF7E00120B0AE4F553F554E4F567
:1009D8003AF53BF555F556E53AA2E713F53AE53B06
:1009E80013F53B30B405433B808006533B7F753A93
:1009F80000120CF50556E55670020555C39408E536
:100A080055940040D2E55425E02408F8A63A08A6F3
:100A18003B0554E55470020553C39408E55394000C
:050A280040ACC2B52244
:100B4700E4F53AF53B120B0AE4F555F556E53AA2FA
:100B5700E713F53AE53B13F53B30B405433B80809B
:100B670006533B7F753A00120CF50556E5567002A1
:0C0B77000555C39408E555940040D222B7
:100C7800AB05D2B5EF3395E0FE120B0AAF03EF33A5
:090C880095E0FE120B0AC2B52230
:100BBE00AA07AF03A905AD077F80120C78AD017FA0
:100BCE0082120C78AD027F84120C78AD5C7F861297
:100BDE000C78AD5D7F88120C787D017F8A120C78BF
:070BEE00AD5E7F8C020C7864
:10095200E51824D033333354F8FFE51924D04FF58A
:100962003CE51B24D0C454F0FFE51C24D04FF53FD6
:10097200E52954D025E0FFE51F24D04FFFE51E24D2
:10098200D0FEC454F04FF53EE52124D0C454F0FF0C
:10099200E52224D04FF53DE52424D0C454F0FFE5F0
:1009A2002524D04FF538E52724D0C454F0FFE5289C
:1009B20024D04FF539853D5C85385DF55EAB3CADA5
:0609C2003FAF3E020BBE38
:10080000120C1AE4FD7F8E120C787DAB7F90120CD7
:1008100078755C27755D12755E23E4FB7D097F1199
:10082000120BBE120CF0120CC17BFF7A0C79AA12CB
:100830000BF5120CFA7BFF7A0C79B0120BF5D3E5AD
:10084000506480F8E551648098402074172550F872
:10085000E6B45C1574182550F8E6B4720CC2AFC249
:10086000AC120952E4F550F5510550D2B51209C841
:10087000C2B57D06E4FF120C3AAF0DAD0BAB091209
:100880000A2DE50D5480D3940074809480401BE5BC
:100890000D5420D39400748094807BFF40067A0C22
:1008A00079B8800C7A0C79BB80067BFF7A0C79BE14
:1008B000120BF57D067F01120C3AAF0FAB15AD039D
:0608C000120A8202083E4C
:100C1A007F887E13120CD07F02120B837F28120B5F
:100C2A00837F0C120B837F01120B837F80020B835D
:100B83008F59E55954F0F580C2A6C2A5D2A77F01BB
:100B93007E00120CD0C2A77F017E00120CD0E55953
:100BA300C454F0F580C2A6C2A5D2A77F017E00126D
:0B0BB3000CD0C2A77F017E00020CD016
:050ACA00540F2430FF71
:100ACF008F5CE55C54F0F580D2A6C2A5D2A77F015A
:100ADF007E00120CD0C2A77F017E00120CD0E55C05
:100AEF00C454F0F580D2A6C2A5D2A77F017E001212
:0B0AFF000CD0C2A77F017E00020CD0CB
:050CFA007FC0020B8326
:100C3A00C3EF648094825017EFC4333354C04480A6
:0F0C4A00FFC3ED648094905003ED2FFF120B83D6
:010C59002278
:100BF5008B598A5A895BAB59AA5AA95B120C916029
:100C050013055BE55B7002055A14F9120C91FF128E
:050C15000ACF80E2227D
:060A2D008F598D5A8B5B0E
:100A33007F01E55920E7027F037804E559A2E71314
:100A4300D8FB5F2430FF120ACFE559120ACA7F3A56
:100A5300120ACF7804E55AA2E713D8FB120ACAE5B3
:100A63005A120ACA7F3A120ACF7804E55BA2E71347
:0F0A7300D8FB120ACAE55B540F2430FF020ACFEA
:100A82008F598D5A8B5B7804E559A2E713D8FB1274
:100A92000ACAE559120ACA7F2F120ACF7804E55A08
:100AA200A2E713D8FB120ACAE55A120ACA7F2F120A
:100AB2000ACF7804E55BA2E713D8FB120ACAE55B0A
:080AC200540F2430FF020ACF9B
:0C0CD000EF4E6007EF1F70F81E80F52249
:1008D200020800E493A3F8E493A34003F68001F234
:1008E20008DFF48029E493A3F85407240CC8C33327
:1008F200C4540F4420C8834004F456800146F6DFF6
:10090200E4800B0102040810204080900CE6E47E93
:10091200019360BCA3FF543F30E509541FFEE493EA
:10092200A360010ECF54C025E060A840B8E493A3B1
:10093200FAE493A3F8E493A3C8C582C8CAC583CADC
:10094200F0A3C8C582C8CAC583CADFE9DEE780BE94
:010CEF000004
:100C9100BB010689828A83E0225002E722BBFE0261
:090CA100E32289828A83E4932294
:00000001FF
